{
  "_format": "hh-sol-artifact-1",
  "contractName": "MyNFT",
  "sourceName": "contracts/MyNFT.sol",
  "abi": [
    {
      "inputs": [],
      "stateMutability": "nonpayable",
      "type": "constructor"
    },
    {
      "anonymous": false,
      "inputs": [
        {
          "indexed": true,
          "internalType": "address",
          "name": "owner",
          "type": "address"
        },
        {
          "indexed": true,
          "internalType": "address",
          "name": "approved",
          "type": "address"
        },
        {
          "indexed": true,
          "internalType": "uint256",
          "name": "tokenId",
          "type": "uint256"
        }
      ],
      "name": "Approval",
      "type": "event"
    },
    {
      "anonymous": false,
      "inputs": [
        {
          "indexed": true,
          "internalType": "address",
          "name": "owner",
          "type": "address"
        },
        {
          "indexed": true,
          "internalType": "address",
          "name": "operator",
          "type": "address"
        },
        {
          "indexed": false,
          "internalType": "bool",
          "name": "approved",
          "type": "bool"
        }
      ],
      "name": "ApprovalForAll",
      "type": "event"
    },
    {
      "anonymous": false,
      "inputs": [
        {
          "indexed": true,
          "internalType": "address",
          "name": "from",
          "type": "address"
        },
        {
          "indexed": true,
          "internalType": "address",
          "name": "to",
          "type": "address"
        },
        {
          "indexed": true,
          "internalType": "uint256",
          "name": "tokenId",
          "type": "uint256"
        }
      ],
      "name": "Transfer",
      "type": "event"
    },
    {
      "inputs": [
        {
          "internalType": "address",
          "name": "to",
          "type": "address"
        },
        {
          "internalType": "uint256",
          "name": "tokenId",
          "type": "uint256"
        }
      ],
      "name": "approve",
      "outputs": [],
      "stateMutability": "nonpayable",
      "type": "function"
    },
    {
      "inputs": [
        {
          "internalType": "address",
          "name": "owner",
          "type": "address"
        }
      ],
      "name": "balanceOf",
      "outputs": [
        {
          "internalType": "uint256",
          "name": "",
          "type": "uint256"
        }
      ],
      "stateMutability": "view",
      "type": "function"
    },
    {
      "inputs": [
        {
          "internalType": "uint256",
          "name": "tokenId",
          "type": "uint256"
        }
      ],
      "name": "getApproved",
      "outputs": [
        {
          "internalType": "address",
          "name": "",
          "type": "address"
        }
      ],
      "stateMutability": "view",
      "type": "function"
    },
    {
      "inputs": [
        {
          "internalType": "address",
          "name": "owner",
          "type": "address"
        },
        {
          "internalType": "address",
          "name": "operator",
          "type": "address"
        }
      ],
      "name": "isApprovedForAll",
      "outputs": [
        {
          "internalType": "bool",
          "name": "",
          "type": "bool"
        }
      ],
      "stateMutability": "view",
      "type": "function"
    },
    {
      "inputs": [],
      "name": "makeMyNFT",
      "outputs": [],
      "stateMutability": "nonpayable",
      "type": "function"
    },
    {
      "inputs": [],
      "name": "name",
      "outputs": [
        {
          "internalType": "string",
          "name": "",
          "type": "string"
        }
      ],
      "stateMutability": "view",
      "type": "function"
    },
    {
      "inputs": [
        {
          "internalType": "uint256",
          "name": "tokenId",
          "type": "uint256"
        }
      ],
      "name": "ownerOf",
      "outputs": [
        {
          "internalType": "address",
          "name": "",
          "type": "address"
        }
      ],
      "stateMutability": "view",
      "type": "function"
    },
    {
      "inputs": [
        {
          "internalType": "uint256",
          "name": "tokenId",
          "type": "uint256"
        }
      ],
      "name": "pickRandomFirstWord",
      "outputs": [
        {
          "internalType": "string",
          "name": "",
          "type": "string"
        }
      ],
      "stateMutability": "view",
      "type": "function"
    },
    {
      "inputs": [
        {
          "internalType": "uint256",
          "name": "tokenId",
          "type": "uint256"
        }
      ],
      "name": "pickRandomSecondWord",
      "outputs": [
        {
          "internalType": "string",
          "name": "",
          "type": "string"
        }
      ],
      "stateMutability": "view",
      "type": "function"
    },
    {
      "inputs": [
        {
          "internalType": "uint256",
          "name": "tokenId",
          "type": "uint256"
        }
      ],
      "name": "pickRandomThirdWord",
      "outputs": [
        {
          "internalType": "string",
          "name": "",
          "type": "string"
        }
      ],
      "stateMutability": "view",
      "type": "function"
    },
    {
      "inputs": [
        {
          "internalType": "address",
          "name": "from",
          "type": "address"
        },
        {
          "internalType": "address",
          "name": "to",
          "type": "address"
        },
        {
          "internalType": "uint256",
          "name": "tokenId",
          "type": "uint256"
        }
      ],
      "name": "safeTransferFrom",
      "outputs": [],
      "stateMutability": "nonpayable",
      "type": "function"
    },
    {
      "inputs": [
        {
          "internalType": "address",
          "name": "from",
          "type": "address"
        },
        {
          "internalType": "address",
          "name": "to",
          "type": "address"
        },
        {
          "internalType": "uint256",
          "name": "tokenId",
          "type": "uint256"
        },
        {
          "internalType": "bytes",
          "name": "_data",
          "type": "bytes"
        }
      ],
      "name": "safeTransferFrom",
      "outputs": [],
      "stateMutability": "nonpayable",
      "type": "function"
    },
    {
      "inputs": [
        {
          "internalType": "address",
          "name": "operator",
          "type": "address"
        },
        {
          "internalType": "bool",
          "name": "approved",
          "type": "bool"
        }
      ],
      "name": "setApprovalForAll",
      "outputs": [],
      "stateMutability": "nonpayable",
      "type": "function"
    },
    {
      "inputs": [
        {
          "internalType": "bytes4",
          "name": "interfaceId",
          "type": "bytes4"
        }
      ],
      "name": "supportsInterface",
      "outputs": [
        {
          "internalType": "bool",
          "name": "",
          "type": "bool"
        }
      ],
      "stateMutability": "view",
      "type": "function"
    },
    {
      "inputs": [],
      "name": "symbol",
      "outputs": [
        {
          "internalType": "string",
          "name": "",
          "type": "string"
        }
      ],
      "stateMutability": "view",
      "type": "function"
    },
    {
      "inputs": [
        {
          "internalType": "uint256",
          "name": "tokenId",
          "type": "uint256"
        }
      ],
      "name": "tokenURI",
      "outputs": [
        {
          "internalType": "string",
          "name": "",
          "type": "string"
        }
      ],
      "stateMutability": "view",
      "type": "function"
    },
    {
      "inputs": [
        {
          "internalType": "address",
          "name": "from",
          "type": "address"
        },
        {
          "internalType": "address",
          "name": "to",
          "type": "address"
        },
        {
          "internalType": "uint256",
          "name": "tokenId",
          "type": "uint256"
        }
      ],
      "name": "transferFrom",
      "outputs": [],
      "stateMutability": "nonpayable",
      "type": "function"
    }
  ],
  "bytecode": "0x608060405260405180610160016040528061012f8152602001620045f161012f9139600890805190602001906200003892919062000a6c565b506040518061016001604052806040518060400160405280600581526020017f414d414c4100000000000000000000000000000000000000000000000000000081525081526020016040518060400160405280600481526020017f4959414e0000000000000000000000000000000000000000000000000000000081525081526020016040518060400160405280600481526020017f53454d4f0000000000000000000000000000000000000000000000000000000081525081526020016040518060400160405280600381526020017f454241000000000000000000000000000000000000000000000000000000000081525081526020016040518060400160405280600481526020017f465546550000000000000000000000000000000000000000000000000000000081525081526020016040518060400160405280600581526020017f454755534900000000000000000000000000000000000000000000000000000081525081526020016040518060400160405280600481526020017f5455574f0000000000000000000000000000000000000000000000000000000081525081526020016040518060400160405280600681526020017f4e4b574f4249000000000000000000000000000000000000000000000000000081525081526020016040518060400160405280600a81526020017f4557415f41474f59494e0000000000000000000000000000000000000000000081525081526020016040518060400160405280600681526020017f414241434841000000000000000000000000000000000000000000000000000081525081526020016040518060400160405280600481526020017f4f4b504100000000000000000000000000000000000000000000000000000000815250815250600990600b620002de92919062000afd565b506040518061018001604052806040518060400160405280600581526020017f455745445500000000000000000000000000000000000000000000000000000081525081526020016040518060400160405280600581526020017f454755534900000000000000000000000000000000000000000000000000000081525081526020016040518060400160405280600381526020017f45464f000000000000000000000000000000000000000000000000000000000081525081526020016040518060400160405280600381526020017f494c41000000000000000000000000000000000000000000000000000000000081525081526020016040518060400160405280600581526020017f4146414e4700000000000000000000000000000000000000000000000000000081525081526020016040518060400160405280600d81526020017f4544495f4b41494e5f4b4f4e470000000000000000000000000000000000000081525081526020016040518060400160405280600781526020017f474245474952490000000000000000000000000000000000000000000000000081525081526020016040518060400160405280600a81526020017f4f46455f4f4e554742550000000000000000000000000000000000000000000081525081526020016040518060400160405280600a81526020017f504f494e545f4b494c4c0000000000000000000000000000000000000000000081525081526020016040518060400160405280600881526020017f45464f5f5249524f00000000000000000000000000000000000000000000000081525081526020016040518060400160405280600681526020017f4f47424f4e4f000000000000000000000000000000000000000000000000000081525081526020016040518060400160405280600581526020017f42414e4741000000000000000000000000000000000000000000000000000000815250815250600a90600c620005bf92919062000b64565b506040518061018001604052806040518060400160405280600681526020017f414b414e4d55000000000000000000000000000000000000000000000000000081525081526020016040518060400160405280600781526020017f41424944454d490000000000000000000000000000000000000000000000000081525081526020016040518060400160405280600581526020017f414245424900000000000000000000000000000000000000000000000000000081525081526020016040518060400160405280600581526020017f414449534100000000000000000000000000000000000000000000000000000081525081526020016040518060400160405280600781526020017f4144454c454b450000000000000000000000000000000000000000000000000081525081526020016040518060400160405280600781526020017f4144454e4959490000000000000000000000000000000000000000000000000081525081526020016040518060400160405280600581526020017f4152454d4f00000000000000000000000000000000000000000000000000000081525081526020016040518060400160405280600781526020017f41444559454d490000000000000000000000000000000000000000000000000081525081526020016040518060400160405280600881526020017f414b494e44454c4500000000000000000000000000000000000000000000000081525081526020016040518060400160405280600981526020017f414445424f57414c45000000000000000000000000000000000000000000000081525081526020016040518060400160405280600a81526020017f41524f47554e445552550000000000000000000000000000000000000000000081525081526020016040518060400160405280600681526020017f415a414d414e0000000000000000000000000000000000000000000000000000815250815250600b90600c620008a092919062000b64565b50348015620008ae57600080fd5b506040518060400160405280600a81526020017f5371756172655f4e4654000000000000000000000000000000000000000000008152506040518060400160405280600381526020017f535152000000000000000000000000000000000000000000000000000000000081525081600090805190602001906200093392919062000a6c565b5080600190805190602001906200094c92919062000a6c565b5050506200099a6040518060400160405280601a81526020017f54686973206973206d79204e465420636f6e7472616374203a29000000000000815250620009a060201b620011f01760201c565b62000d85565b62000a4081604051602401620009b7919062000c99565b6040516020818303038152906040527f41304fac000000000000000000000000000000000000000000000000000000007bffffffffffffffffffffffffffffffffffffffffffffffffffffffff19166020820180517bffffffffffffffffffffffffffffffffffffffffffffffffffffffff838183161783525050505062000a4360201b60201c565b50565b60008151905060006a636f6e736f6c652e6c6f679050602083016000808483855afa5050505050565b82805462000a7a9062000d0f565b90600052602060002090601f01602090048101928262000a9e576000855562000aea565b82601f1062000ab957805160ff191683800117855562000aea565b8280016001018555821562000aea579182015b8281111562000ae957825182559160200191906001019062000acc565b5b50905062000af9919062000bcb565b5090565b82805482825590600052602060002090810192821562000b51579160200282015b8281111562000b5057825182908051906020019062000b3f92919062000a6c565b509160200191906001019062000b1e565b5b50905062000b60919062000bea565b5090565b82805482825590600052602060002090810192821562000bb8579160200282015b8281111562000bb757825182908051906020019062000ba692919062000a6c565b509160200191906001019062000b85565b5b50905062000bc7919062000bea565b5090565b5b8082111562000be657600081600090555060010162000bcc565b5090565b5b8082111562000c0e576000818162000c04919062000c12565b5060010162000beb565b5090565b50805462000c209062000d0f565b6000825580601f1062000c34575062000c55565b601f01602090049060005260206000209081019062000c54919062000bcb565b5b50565b600062000c658262000cbd565b62000c71818562000cc8565b935062000c8381856020860162000cd9565b62000c8e8162000d74565b840191505092915050565b6000602082019050818103600083015262000cb5818462000c58565b905092915050565b600081519050919050565b600082825260208201905092915050565b60005b8381101562000cf957808201518184015260208101905062000cdc565b8381111562000d09576000848401525b50505050565b6000600282049050600182168062000d2857607f821691505b6020821081141562000d3f5762000d3e62000d45565b5b50919050565b7f4e487b7100000000000000000000000000000000000000000000000000000000600052602260045260246000fd5b6000601f19601f8301169050919050565b61385c8062000d956000396000f3fe608060405234801561001057600080fd5b506004361061010b5760003560e01c806370a08231116100a2578063b187301f11610071578063b187301f146102b6578063b88d4fde146102e6578063c575757a14610302578063c87b56dd14610332578063e985e9c5146103625761010b565b806370a082311461024257806395d89b41146102725780639a5713f714610290578063a22cb4651461029a5761010b565b806323b872dd116100de57806323b872dd146101aa5780632de38d68146101c657806342842e0e146101f65780636352211e146102125761010b565b806301ffc9a71461011057806306fdde0314610140578063081812fc1461015e578063095ea7b31461018e575b600080fd5b61012a60048036038101906101259190612483565b610392565b60405161013791906130d2565b60405180910390f35b610148610474565b60405161015591906130ed565b60405180910390f35b610178600480360381019061017391906124d5565b610506565b604051610185919061306b565b60405180910390f35b6101a860048036038101906101a39190612447565b61058b565b005b6101c460048036038101906101bf9190612341565b6106a3565b005b6101e060048036038101906101db91906124d5565b610703565b6040516101ed91906130ed565b60405180910390f35b610210600480360381019061020b9190612341565b610821565b005b61022c600480360381019061022791906124d5565b610841565b604051610239919061306b565b60405180910390f35b61025c600480360381019061025791906122dc565b6108f3565b604051610269919061334d565b60405180910390f35b61027a6109ab565b60405161028791906130ed565b60405180910390f35b610298610a3d565b005b6102b460048036038101906102af919061240b565b610beb565b005b6102d060048036038101906102cb91906124d5565b610d6c565b6040516102dd91906130ed565b60405180910390f35b61030060048036038101906102fb9190612390565b610e8a565b005b61031c600480360381019061031791906124d5565b610eec565b60405161032991906130ed565b60405180910390f35b61034c600480360381019061034791906124d5565b61100a565b60405161035991906130ed565b60405180910390f35b61037c60048036038101906103779190612305565b61115c565b60405161038991906130d2565b60405180910390f35b60007f80ac58cd000000000000000000000000000000000000000000000000000000007bffffffffffffffffffffffffffffffffffffffffffffffffffffffff1916827bffffffffffffffffffffffffffffffffffffffffffffffffffffffff1916148061045d57507f5b5e139f000000000000000000000000000000000000000000000000000000007bffffffffffffffffffffffffffffffffffffffffffffffffffffffff1916827bffffffffffffffffffffffffffffffffffffffffffffffffffffffff1916145b8061046d575061046c82611289565b5b9050919050565b606060008054610483906135ec565b80601f01602080910402602001604051908101604052809291908181526020018280546104af906135ec565b80156104fc5780601f106104d1576101008083540402835291602001916104fc565b820191906000526020600020905b8154815290600101906020018083116104df57829003601f168201915b5050505050905090565b6000610511826112f3565b610550576040517f08c379a0000000000000000000000000000000000000000000000000000000008152600401610547906132ad565b60405180910390fd5b6004600083815260200190815260200160002060009054906101000a900473ffffffffffffffffffffffffffffffffffffffff169050919050565b600061059682610841565b90508073ffffffffffffffffffffffffffffffffffffffff168373ffffffffffffffffffffffffffffffffffffffff161415610607576040517f08c379a00000000000000000000000000000000000000000000000000000000081526004016105fe9061330d565b60405180910390fd5b8073ffffffffffffffffffffffffffffffffffffffff1661062661135f565b73ffffffffffffffffffffffffffffffffffffffff16148061065557506106548161064f61135f565b61115c565b5b610694576040517f08c379a000000000000000000000000000000000000000000000000000000000815260040161068b906131ed565b60405180910390fd5b61069e8383611367565b505050565b6106b46106ae61135f565b82611420565b6106f3576040517f08c379a00000000000000000000000000000000000000000000000000000000081526004016106ea9061332d565b60405180910390fd5b6106fe8383836114fe565b505050565b606060006107376107138461175a565b6040516020016107239190612f9e565b604051602081830303815290604052611907565b90506009805490508161074a9190613667565b905060098181548110610786577f4e487b7100000000000000000000000000000000000000000000000000000000600052603260045260246000fd5b90600052602060002001805461079b906135ec565b80601f01602080910402602001604051908101604052809291908181526020018280546107c7906135ec565b80156108145780601f106107e957610100808354040283529160200191610814565b820191906000526020600020905b8154815290600101906020018083116107f757829003601f168201915b5050505050915050919050565b61083c83838360405180602001604052806000815250610e8a565b505050565b6000806002600084815260200190815260200160002060009054906101000a900473ffffffffffffffffffffffffffffffffffffffff169050600073ffffffffffffffffffffffffffffffffffffffff168173ffffffffffffffffffffffffffffffffffffffff1614156108ea576040517f08c379a00000000000000000000000000000000000000000000000000000000081526004016108e19061322d565b60405180910390fd5b80915050919050565b60008073ffffffffffffffffffffffffffffffffffffffff168273ffffffffffffffffffffffffffffffffffffffff161415610964576040517f08c379a000000000000000000000000000000000000000000000000000000000815260040161095b9061320d565b60405180910390fd5b600360008373ffffffffffffffffffffffffffffffffffffffff1673ffffffffffffffffffffffffffffffffffffffff168152602001908152602001600020549050919050565b6060600180546109ba906135ec565b80601f01602080910402602001604051908101604052809291908181526020018280546109e6906135ec565b8015610a335780601f10610a0857610100808354040283529160200191610a33565b820191906000526020600020905b815481529060010190602001808311610a1657829003601f168201915b5050505050905090565b6000610a49600761193a565b90506000610a5682610703565b90506000610a6383610d6c565b90506000610a7084610eec565b90506000838383604051602001610a8993929190612f28565b60405160208183030381529060405290506000600882604051602001610ab0929190612f6f565b60405160208183030381529060405290506000610af583610ad084611948565b604051602001610ae1929190612fe2565b604051602081830303815290604052611948565b9050600081604051602001610b0a9190613049565b6040516020818303038152906040529050610b596040518060400160405280601581526020017f0a2d2d2d2d2d2d2d2d2d2d2d2d2d2d2d2d2d2d2d2d00000000000000000000008152506111f0565b610b62816111f0565b610ba06040518060400160405280601581526020017f2d2d2d2d2d2d2d2d2d2d2d2d2d2d2d2d2d2d2d2d0a00000000000000000000008152506111f0565b610baa3389611b06565b610bb48882611b24565b610bd76040518060600160405280602581526020016137c2602591398933611b98565b610be16007611c37565b5050505050505050565b610bf361135f565b73ffffffffffffffffffffffffffffffffffffffff168273ffffffffffffffffffffffffffffffffffffffff161415610c61576040517f08c379a0000000000000000000000000000000000000000000000000000000008152600401610c58906131ad565b60405180910390fd5b8060056000610c6e61135f565b73ffffffffffffffffffffffffffffffffffffffff1673ffffffffffffffffffffffffffffffffffffffff16815260200190815260200160002060008473ffffffffffffffffffffffffffffffffffffffff1673ffffffffffffffffffffffffffffffffffffffff16815260200190815260200160002060006101000a81548160ff0219169083151502179055508173ffffffffffffffffffffffffffffffffffffffff16610d1b61135f565b73ffffffffffffffffffffffffffffffffffffffff167f17307eab39ab6107e8899845ad3d59bd9653f200f220920489ca2b5937696c3183604051610d6091906130d2565b60405180910390a35050565b60606000610da0610d7c8461175a565b604051602001610d8c9190613027565b604051602081830303815290604052611907565b9050600a8054905081610db39190613667565b9050600a8181548110610def577f4e487b7100000000000000000000000000000000000000000000000000000000600052603260045260246000fd5b906000526020600020018054610e04906135ec565b80601f0160208091040260200160405190810160405280929190818152602001828054610e30906135ec565b8015610e7d5780601f10610e5257610100808354040283529160200191610e7d565b820191906000526020600020905b815481529060010190602001808311610e6057829003601f168201915b5050505050915050919050565b610e9b610e9561135f565b83611420565b610eda576040517f08c379a0000000000000000000000000000000000000000000000000000000008152600401610ed19061332d565b60405180910390fd5b610ee684848484611c4d565b50505050565b60606000610f20610efc8461175a565b604051602001610f0c9190612fc0565b604051602081830303815290604052611907565b9050600b8054905081610f339190613667565b9050600b8181548110610f6f577f4e487b7100000000000000000000000000000000000000000000000000000000600052603260045260246000fd5b906000526020600020018054610f84906135ec565b80601f0160208091040260200160405190810160405280929190818152602001828054610fb0906135ec565b8015610ffd5780601f10610fd257610100808354040283529160200191610ffd565b820191906000526020600020905b815481529060010190602001808311610fe057829003601f168201915b5050505050915050919050565b6060611015826112f3565b611054576040517f08c379a000000000000000000000000000000000000000000000000000000000815260040161104b9061328d565b60405180910390fd5b6000600660008481526020019081526020016000208054611074906135ec565b80601f01602080910402602001604051908101604052809291908181526020018280546110a0906135ec565b80156110ed5780601f106110c2576101008083540402835291602001916110ed565b820191906000526020600020905b8154815290600101906020018083116110d057829003601f168201915b5050505050905060006110fe611ca9565b9050600081511415611114578192505050611157565b600082511115611149578082604051602001611131929190612f04565b60405160208183030381529060405292505050611157565b61115284611cc0565b925050505b919050565b6000600560008473ffffffffffffffffffffffffffffffffffffffff1673ffffffffffffffffffffffffffffffffffffffff16815260200190815260200160002060008373ffffffffffffffffffffffffffffffffffffffff1673ffffffffffffffffffffffffffffffffffffffff16815260200190815260200160002060009054906101000a900460ff16905092915050565b6112868160405160240161120491906130ed565b6040516020818303038152906040527f41304fac000000000000000000000000000000000000000000000000000000007bffffffffffffffffffffffffffffffffffffffffffffffffffffffff19166020820180517bffffffffffffffffffffffffffffffffffffffffffffffffffffffff8381831617835250505050611d67565b50565b60007f01ffc9a7000000000000000000000000000000000000000000000000000000007bffffffffffffffffffffffffffffffffffffffffffffffffffffffff1916827bffffffffffffffffffffffffffffffffffffffffffffffffffffffff1916149050919050565b60008073ffffffffffffffffffffffffffffffffffffffff166002600084815260200190815260200160002060009054906101000a900473ffffffffffffffffffffffffffffffffffffffff1673ffffffffffffffffffffffffffffffffffffffff1614159050919050565b600033905090565b816004600083815260200190815260200160002060006101000a81548173ffffffffffffffffffffffffffffffffffffffff021916908373ffffffffffffffffffffffffffffffffffffffff160217905550808273ffffffffffffffffffffffffffffffffffffffff166113da83610841565b73ffffffffffffffffffffffffffffffffffffffff167f8c5be1e5ebec7d5bd14f71427d1e84f3dd0314c0f7b2291e5b200ac8c7c3b92560405160405180910390a45050565b600061142b826112f3565b61146a576040517f08c379a0000000000000000000000000000000000000000000000000000000008152600401611461906131cd565b60405180910390fd5b600061147583610841565b90508073ffffffffffffffffffffffffffffffffffffffff168473ffffffffffffffffffffffffffffffffffffffff1614806114e457508373ffffffffffffffffffffffffffffffffffffffff166114cc84610506565b73ffffffffffffffffffffffffffffffffffffffff16145b806114f557506114f4818561115c565b5b91505092915050565b8273ffffffffffffffffffffffffffffffffffffffff1661151e82610841565b73ffffffffffffffffffffffffffffffffffffffff1614611574576040517f08c379a000000000000000000000000000000000000000000000000000000000815260040161156b906132cd565b60405180910390fd5b600073ffffffffffffffffffffffffffffffffffffffff168273ffffffffffffffffffffffffffffffffffffffff1614156115e4576040517f08c379a00000000000000000000000000000000000000000000000000000000081526004016115db9061318d565b60405180910390fd5b6115ef838383611d90565b6115fa600082611367565b6001600360008573ffffffffffffffffffffffffffffffffffffffff1673ffffffffffffffffffffffffffffffffffffffff168152602001908152602001600020600082825461164a9190613502565b925050819055506001600360008473ffffffffffffffffffffffffffffffffffffffff1673ffffffffffffffffffffffffffffffffffffffff16815260200190815260200160002060008282546116a19190613421565b92505081905550816002600083815260200190815260200160002060006101000a81548173ffffffffffffffffffffffffffffffffffffffff021916908373ffffffffffffffffffffffffffffffffffffffff160217905550808273ffffffffffffffffffffffffffffffffffffffff168473ffffffffffffffffffffffffffffffffffffffff167fddf252ad1be2c89b69c2b068fc378daa952ba7f163c4a11628f55a4df523b3ef60405160405180910390a4505050565b606060008214156117a2576040518060400160405280600181526020017f30000000000000000000000000000000000000000000000000000000000000008152509050611902565b600082905060005b600082146117d45780806117bd9061361e565b915050600a826117cd9190613477565b91506117aa565b60008167ffffffffffffffff811115611816577f4e487b7100000000000000000000000000000000000000000000000000000000600052604160045260246000fd5b6040519080825280601f01601f1916602001820160405280156118485781602001600182028036833780820191505090505b5090505b600085146118fb576001826118619190613502565b9150600a856118709190613667565b603061187c9190613421565b60f81b8183815181106118b8577f4e487b7100000000000000000000000000000000000000000000000000000000600052603260045260246000fd5b60200101907effffffffffffffffffffffffffffffffffffffffffffffffffffffffffffff1916908160001a905350600a856118f49190613477565b945061184c565b8093505050505b919050565b60008160405160200161191a9190612eed565b6040516020818303038152906040528051906020012060001c9050919050565b600081600001549050919050565b606060008251905060008114156119715760405180602001604052806000815250915050611b01565b600060036002836119829190613421565b61198c9190613477565b600461199891906134a8565b905060006020826119a99190613421565b67ffffffffffffffff8111156119e8577f4e487b7100000000000000000000000000000000000000000000000000000000600052604160045260246000fd5b6040519080825280601f01601f191660200182016040528015611a1a5781602001600182028036833780820191505090505b50905060006040518060600160405280604081526020016137e7604091399050600181016020830160005b86811015611abe5760038101905062ffffff818a015116603f8160121c168401518060081b905060ff603f83600c1c1686015116810190508060081b905060ff603f8360061c1686015116810190508060081b905060ff603f831686015116810190508060e01b90508084526004840193505050611a45565b506003860660018114611ad85760028114611ae857611af3565b613d3d60f01b6002830352611af3565b603d60f81b60018303525b508484525050819450505050505b919050565b611b20828260405180602001604052806000815250611d95565b5050565b611b2d826112f3565b611b6c576040517f08c379a0000000000000000000000000000000000000000000000000000000008152600401611b639061324d565b60405180910390fd5b80600660008481526020019081526020016000209080519060200190611b93929190612168565b505050565b611c32838383604051602401611bb09392919061310f565b6040516020818303038152906040527fe3849f79000000000000000000000000000000000000000000000000000000007bffffffffffffffffffffffffffffffffffffffffffffffffffffffff19166020820180517bffffffffffffffffffffffffffffffffffffffffffffffffffffffff8381831617835250505050611d67565b505050565b6001816000016000828254019250508190555050565b611c588484846114fe565b611c6484848484611df0565b611ca3576040517f08c379a0000000000000000000000000000000000000000000000000000000008152600401611c9a9061314d565b60405180910390fd5b50505050565b606060405180602001604052806000815250905090565b6060611ccb826112f3565b611d0a576040517f08c379a0000000000000000000000000000000000000000000000000000000008152600401611d01906132ed565b60405180910390fd5b6000611d14611ca9565b90506000815111611d345760405180602001604052806000815250611d5f565b80611d3e8461175a565b604051602001611d4f929190612f04565b6040516020818303038152906040525b915050919050565b60008151905060006a636f6e736f6c652e6c6f679050602083016000808483855afa5050505050565b505050565b611d9f8383611f87565b611dac6000848484611df0565b611deb576040517f08c379a0000000000000000000000000000000000000000000000000000000008152600401611de29061314d565b60405180910390fd5b505050565b6000611e118473ffffffffffffffffffffffffffffffffffffffff16612155565b15611f7a578373ffffffffffffffffffffffffffffffffffffffff1663150b7a02611e3a61135f565b8786866040518563ffffffff1660e01b8152600401611e5c9493929190613086565b602060405180830381600087803b158015611e7657600080fd5b505af1925050508015611ea757506040513d601f19601f82011682018060405250810190611ea491906124ac565b60015b611f2a573d8060008114611ed7576040519150601f19603f3d011682016040523d82523d6000602084013e611edc565b606091505b50600081511415611f22576040517f08c379a0000000000000000000000000000000000000000000000000000000008152600401611f199061314d565b60405180910390fd5b805181602001fd5b63150b7a0260e01b7bffffffffffffffffffffffffffffffffffffffffffffffffffffffff1916817bffffffffffffffffffffffffffffffffffffffffffffffffffffffff191614915050611f7f565b600190505b949350505050565b600073ffffffffffffffffffffffffffffffffffffffff168273ffffffffffffffffffffffffffffffffffffffff161415611ff7576040517f08c379a0000000000000000000000000000000000000000000000000000000008152600401611fee9061326d565b60405180910390fd5b612000816112f3565b15612040576040517f08c379a00000000000000000000000000000000000000000000000000000000081526004016120379061316d565b60405180910390fd5b61204c60008383611d90565b6001600360008473ffffffffffffffffffffffffffffffffffffffff1673ffffffffffffffffffffffffffffffffffffffff168152602001908152602001600020600082825461209c9190613421565b92505081905550816002600083815260200190815260200160002060006101000a81548173ffffffffffffffffffffffffffffffffffffffff021916908373ffffffffffffffffffffffffffffffffffffffff160217905550808273ffffffffffffffffffffffffffffffffffffffff16600073ffffffffffffffffffffffffffffffffffffffff167fddf252ad1be2c89b69c2b068fc378daa952ba7f163c4a11628f55a4df523b3ef60405160405180910390a45050565b600080823b905060008111915050919050565b828054612174906135ec565b90600052602060002090601f01602090048101928261219657600085556121dd565b82601f106121af57805160ff19168380011785556121dd565b828001600101855582156121dd579182015b828111156121dc5782518255916020019190600101906121c1565b5b5090506121ea91906121ee565b5090565b5b808211156122075760008160009055506001016121ef565b5090565b600061221e61221984613399565b613368565b90508281526020810184848401111561223657600080fd5b6122418482856135aa565b509392505050565b60008135905061225881613765565b92915050565b60008135905061226d8161377c565b92915050565b60008135905061228281613793565b92915050565b60008151905061229781613793565b92915050565b600082601f8301126122ae57600080fd5b81356122be84826020860161220b565b91505092915050565b6000813590506122d6816137aa565b92915050565b6000602082840312156122ee57600080fd5b60006122fc84828501612249565b91505092915050565b6000806040838503121561231857600080fd5b600061232685828601612249565b925050602061233785828601612249565b9150509250929050565b60008060006060848603121561235657600080fd5b600061236486828701612249565b935050602061237586828701612249565b9250506040612386868287016122c7565b9150509250925092565b600080600080608085870312156123a657600080fd5b60006123b487828801612249565b94505060206123c587828801612249565b93505060406123d6878288016122c7565b925050606085013567ffffffffffffffff8111156123f357600080fd5b6123ff8782880161229d565b91505092959194509250565b6000806040838503121561241e57600080fd5b600061242c85828601612249565b925050602061243d8582860161225e565b9150509250929050565b6000806040838503121561245a57600080fd5b600061246885828601612249565b9250506020612479858286016122c7565b9150509250929050565b60006020828403121561249557600080fd5b60006124a384828501612273565b91505092915050565b6000602082840312156124be57600080fd5b60006124cc84828501612288565b91505092915050565b6000602082840312156124e757600080fd5b60006124f5848285016122c7565b91505092915050565b61250781613536565b82525050565b61251681613548565b82525050565b6000612527826133de565b61253181856133f4565b93506125418185602086016135b9565b61254a81613754565b840191505092915050565b6000612560826133e9565b61256a8185613405565b935061257a8185602086016135b9565b61258381613754565b840191505092915050565b6000612599826133e9565b6125a38185613416565b93506125b38185602086016135b9565b80840191505092915050565b600081546125cc816135ec565b6125d68186613416565b945060018216600081146125f1576001811461260257612635565b60ff19831686528186019350612635565b61260b856133c9565b60005b8381101561262d5781548189015260018201915060208101905061260e565b838801955050505b50505092915050565b600061264b603283613405565b91507f4552433732313a207472616e7366657220746f206e6f6e20455243373231526560008301527f63656976657220696d706c656d656e74657200000000000000000000000000006020830152604082019050919050565b60006126b1601c83613405565b91507f4552433732313a20746f6b656e20616c7265616479206d696e746564000000006000830152602082019050919050565b60006126f1602483613405565b91507f4552433732313a207472616e7366657220746f20746865207a65726f2061646460008301527f72657373000000000000000000000000000000000000000000000000000000006020830152604082019050919050565b6000612757601983613405565b91507f4552433732313a20617070726f766520746f2063616c6c6572000000000000006000830152602082019050919050565b6000612797606383613416565b91507f222c20226465736372697074696f6e223a20224120686967686c79206163636c60008301527f61696d656420636f6c6c656374696f6e206f6620737175617265732e222c202260208301527f696d616765223a2022646174613a696d6167652f7376672b786d6c3b6261736560408301527f36342c00000000000000000000000000000000000000000000000000000000006060830152606382019050919050565b6000612849600d83613416565b91507f4d595f46495253545f574f5244000000000000000000000000000000000000006000830152600d82019050919050565b6000612889602c83613405565b91507f4552433732313a206f70657261746f7220717565727920666f72206e6f6e657860008301527f697374656e7420746f6b656e00000000000000000000000000000000000000006020830152604082019050919050565b60006128ef600d83613416565b91507f3c2f746578743e3c2f7376673e000000000000000000000000000000000000006000830152600d82019050919050565b600061292f600d83613416565b91507f4d595f54484952445f574f5244000000000000000000000000000000000000006000830152600d82019050919050565b600061296f600183613416565b91507f20000000000000000000000000000000000000000000000000000000000000006000830152600182019050919050565b60006129af603883613405565b91507f4552433732313a20617070726f76652063616c6c6572206973206e6f74206f7760008301527f6e6572206e6f7220617070726f76656420666f7220616c6c00000000000000006020830152604082019050919050565b6000612a15602a83613405565b91507f4552433732313a2062616c616e636520717565727920666f7220746865207a6560008301527f726f2061646472657373000000000000000000000000000000000000000000006020830152604082019050919050565b6000612a7b602983613405565b91507f4552433732313a206f776e657220717565727920666f72206e6f6e657869737460008301527f656e7420746f6b656e00000000000000000000000000000000000000000000006020830152604082019050919050565b6000612ae1602e83613405565b91507f45524337323155524953746f726167653a2055524920736574206f66206e6f6e60008301527f6578697374656e7420746f6b656e0000000000000000000000000000000000006020830152604082019050919050565b6000612b47600283613416565b91507f227d0000000000000000000000000000000000000000000000000000000000006000830152600282019050919050565b6000612b87602083613405565b91507f4552433732313a206d696e7420746f20746865207a65726f20616464726573736000830152602082019050919050565b6000612bc7603183613405565b91507f45524337323155524953746f726167653a2055524920717565727920666f722060008301527f6e6f6e6578697374656e7420746f6b656e0000000000000000000000000000006020830152604082019050919050565b6000612c2d602c83613405565b91507f4552433732313a20617070726f76656420717565727920666f72206e6f6e657860008301527f697374656e7420746f6b656e00000000000000000000000000000000000000006020830152604082019050919050565b6000612c93602983613405565b91507f4552433732313a207472616e73666572206f6620746f6b656e2074686174206960008301527f73206e6f74206f776e00000000000000000000000000000000000000000000006020830152604082019050919050565b6000612cf9602f83613405565b91507f4552433732314d657461646174613a2055524920717565727920666f72206e6f60008301527f6e6578697374656e7420746f6b656e00000000000000000000000000000000006020830152604082019050919050565b6000612d5f600a83613416565b91507f7b226e616d65223a2022000000000000000000000000000000000000000000006000830152600a82019050919050565b6000612d9f600e83613416565b91507f4d595f5345434f4e445f574f52440000000000000000000000000000000000006000830152600e82019050919050565b6000612ddf602183613405565b91507f4552433732313a20617070726f76616c20746f2063757272656e74206f776e6560008301527f72000000000000000000000000000000000000000000000000000000000000006020830152604082019050919050565b6000612e45601d83613416565b91507f646174613a6170706c69636174696f6e2f6a736f6e3b6261736536342c0000006000830152601d82019050919050565b6000612e85603183613405565b91507f4552433732313a207472616e736665722063616c6c6572206973206e6f74206f60008301527f776e6572206e6f7220617070726f7665640000000000000000000000000000006020830152604082019050919050565b612ee7816135a0565b82525050565b6000612ef9828461258e565b915081905092915050565b6000612f10828561258e565b9150612f1c828461258e565b91508190509392505050565b6000612f34828661258e565b9150612f3f82612962565b9150612f4b828561258e565b9150612f5682612962565b9150612f62828461258e565b9150819050949350505050565b6000612f7b82856125bf565b9150612f87828461258e565b9150612f92826128e2565b91508190509392505050565b6000612fa98261283c565b9150612fb5828461258e565b915081905092915050565b6000612fcb82612922565b9150612fd7828461258e565b915081905092915050565b6000612fed82612d52565b9150612ff9828561258e565b91506130048261278a565b9150613010828461258e565b915061301b82612b3a565b91508190509392505050565b600061303282612d92565b915061303e828461258e565b915081905092915050565b600061305482612e38565b9150613060828461258e565b915081905092915050565b600060208201905061308060008301846124fe565b92915050565b600060808201905061309b60008301876124fe565b6130a860208301866124fe565b6130b56040830185612ede565b81810360608301526130c7818461251c565b905095945050505050565b60006020820190506130e7600083018461250d565b92915050565b600060208201905081810360008301526131078184612555565b905092915050565b600060608201905081810360008301526131298186612555565b90506131386020830185612ede565b61314560408301846124fe565b949350505050565b600060208201905081810360008301526131668161263e565b9050919050565b60006020820190508181036000830152613186816126a4565b9050919050565b600060208201905081810360008301526131a6816126e4565b9050919050565b600060208201905081810360008301526131c68161274a565b9050919050565b600060208201905081810360008301526131e68161287c565b9050919050565b60006020820190508181036000830152613206816129a2565b9050919050565b6000602082019050818103600083015261322681612a08565b9050919050565b6000602082019050818103600083015261324681612a6e565b9050919050565b6000602082019050818103600083015261326681612ad4565b9050919050565b6000602082019050818103600083015261328681612b7a565b9050919050565b600060208201905081810360008301526132a681612bba565b9050919050565b600060208201905081810360008301526132c681612c20565b9050919050565b600060208201905081810360008301526132e681612c86565b9050919050565b6000602082019050818103600083015261330681612cec565b9050919050565b6000602082019050818103600083015261332681612dd2565b9050919050565b6000602082019050818103600083015261334681612e78565b9050919050565b60006020820190506133626000830184612ede565b92915050565b6000604051905081810181811067ffffffffffffffff8211171561338f5761338e613725565b5b8060405250919050565b600067ffffffffffffffff8211156133b4576133b3613725565b5b601f19601f8301169050602081019050919050565b60008190508160005260206000209050919050565b600081519050919050565b600081519050919050565b600082825260208201905092915050565b600082825260208201905092915050565b600081905092915050565b600061342c826135a0565b9150613437836135a0565b9250827fffffffffffffffffffffffffffffffffffffffffffffffffffffffffffffffff0382111561346c5761346b613698565b5b828201905092915050565b6000613482826135a0565b915061348d836135a0565b92508261349d5761349c6136c7565b5b828204905092915050565b60006134b3826135a0565b91506134be836135a0565b9250817fffffffffffffffffffffffffffffffffffffffffffffffffffffffffffffffff04831182151516156134f7576134f6613698565b5b828202905092915050565b600061350d826135a0565b9150613518836135a0565b92508282101561352b5761352a613698565b5b828203905092915050565b600061354182613580565b9050919050565b60008115159050919050565b60007fffffffff0000000000000000000000000000000000000000000000000000000082169050919050565b600073ffffffffffffffffffffffffffffffffffffffff82169050919050565b6000819050919050565b82818337600083830152505050565b60005b838110156135d75780820151818401526020810190506135bc565b838111156135e6576000848401525b50505050565b6000600282049050600182168061360457607f821691505b60208210811415613618576136176136f6565b5b50919050565b6000613629826135a0565b91507fffffffffffffffffffffffffffffffffffffffffffffffffffffffffffffffff82141561365c5761365b613698565b5b600182019050919050565b6000613672826135a0565b915061367d836135a0565b92508261368d5761368c6136c7565b5b828206905092915050565b7f4e487b7100000000000000000000000000000000000000000000000000000000600052601160045260246000fd5b7f4e487b7100000000000000000000000000000000000000000000000000000000600052601260045260246000fd5b7f4e487b7100000000000000000000000000000000000000000000000000000000600052602260045260246000fd5b7f4e487b7100000000000000000000000000000000000000000000000000000000600052604160045260246000fd5b6000601f19601f8301169050919050565b61376e81613536565b811461377957600080fd5b50565b61378581613548565b811461379057600080fd5b50565b61379c81613554565b81146137a757600080fd5b50565b6137b3816135a0565b81146137be57600080fd5b5056fe416e204e465420772f20494420257320686173206265656e206d696e74656420746f2025734142434445464748494a4b4c4d4e4f505152535455565758595a6162636465666768696a6b6c6d6e6f707172737475767778797a303132333435363738392b2fa264697066735822122048653b257b0a5b756035206fde78b7b1af028a01f1015048547a6849106e569064736f6c634300080000333c73766720786d6c6e733d27687474703a2f2f7777772e77332e6f72672f323030302f73766727207072657365727665417370656374526174696f3d27784d696e594d696e206d656574272076696577426f783d273020302033353020333530273e3c7374796c653e2e62617365207b2066696c6c3a2077686974653b20666f6e742d66616d696c793a2073657269663b20666f6e742d73697a653a20323070783b207d3c2f7374796c653e3c726563742077696474683d273130302527206865696768743d2731303025272066696c6c3d27626c61636b27202f3e3c7465787420783d273530252720793d273530252720636c6173733d27626173652720646f6d696e616e742d626173656c696e653d276d6964646c652720746578742d616e63686f723d276d6964646c65273e",
  "linkReferences": {},
  "deployedLinkReferences": {}
}